:020000040800F2
:1000000000000120714B0008B54B0008B54B0008FB
:10001000B54B0008B54B0008B54B000800000000C8
:10002000000000000000000000000000B54B0008C8
:10003000B54B000800000000B54B0008B54B0008A8
:10004000B54B0008B54B0008B54B0008B54B000890
:10005000B54B0008B54B0008B54B0008B54B000880
:10006000B54B0008B54B0008B54B0008B54B000870
:10007000B54B0008B54B0008B54B0008B54B000860
:10008000B54B0008B54B0008B54B0008B54B000850
:1000900011230008B54B0008B54B0008B54B00080C
:1000A000B54B0008B54B0008B54B0008B54B000830
:1000B000B54B0008B54B0008B54B0008B54B000820
:1000C000B54B0008B54B0008B54B0008B54B000810
:1000D000B54B0008B54B0008B54B0008B54B000800
:1000E000B54B0008B54B0008B54B0008B54B0008F0
:1000F000B54B0008B54B0008B54B0008B54B0008E0
:10010000B54B0008B54B0008B54B0008B54B0008CF
:10011000B54B0008B54B0008B54B0008B54B0008BF
:10012000B54B0008B54B0008B54B0008B54B0008AF
:1001300000000000000000000000000000000000BF
:1001400000000000000000000000000000000000AF
:10015000000000000000000000000000000000009F
:10016000000000000000000000000000000000008F
:10017000000000000000000000000000000000007F
:10018000000000000000000000000000000000006F
:10019000000000000000000000000000000000005F
:1001A000000000000000000000000000000000004F
:1001B000000000000000000000000000000000003F
:1001C000000000000000000000000000000000002F
:1001D000000000000000000000000000000000001F
:0401E0005FF8E0F1F3
:1001E40040F2E853C2F200031A780AB901201870E9
:1001F400704700BF40F2E850C2F2000008B503683F
:100204002BB140F20003C0F2000303B1984708BDCC
:1002140030B5044689B008460D4600F03DF844F672
:1002240000530195C0F6000303930123049301AB2B
:10023400059302230693421C029007920CB1A36912
:10024400EBB140F2E4032046C2F200031B689B6852
:100254009A8912F4005F01BF42F400529A81596EE8
:1002640021F40052A16808BF5A6605AA00F074FA86
:1002740000280CBF0A204FF0FF3009B030BD2046E3
:1002840000F062F8DDE700BF40F2E4030146C2F289
:1002940000031868BCE700BF20F0030110F003005E
:1002A400C0F1000051F8043B00F1040C4FEACC0CFF
:1002B4006FF000021CBF22FA0CF213434FF0010C42
:1002C4004CEA0C2C4CEA0C4CA3EB0C0222EA030281
:1002D40012EACC1204BF51F8043B0430F4D013F0FA
:1002E400FF0F1FBF013013F47F4F013013F47F0F52
:1002F40018BF0130704700BF0020704700207047CE
:1003040041F6ED21C0F6000100F0C2BB70B56825CE
:100314000E4605FB01F505F10C0100F00FFC044647
:1003240048B100F10C03002146602A4618462160BA
:10033400A36001F009F8204670BD00BF44F6FC43F9
:10034400C0F600031868DBE72DE9F04F0546846921
:1003540083B0002C78D140F205320123C0F60002AC
:100364008361826241F64D09C0F8D84041F67508B0
:10037400C0F8DC4041F6B10AC0F8E04041F6D90BC0
:10038400019300F065F8C0F60009C0F60008C0F655
:10039400000AC0F6000B6860284600F059F8A8600F
:1003A400284600F055F86F6821460822E8600420CA
:1003B4003C60B88107F15C007C60BC607C66FC81B9
:1003C4003C617C61BC6100F0BFFFAE68019B2146CB
:1003D400082209203F62B08106F15C00F381C7F86E
:1003E4002490C7F82880C7F82CA0C7F830B0346030
:1003F4007460B460746634617461B46100F0A4FF25
:10040400ED681223022036622146E8810822C6F8EC
:10041400249005F15C00AB81C6F82880C6F82CA0B6
:10042400C6F830B02C606C60AC606C662C616C619A
:10043400AC6100F089FF2D62C5F82490C5F82880CE
:10044400C5F82CA0C5F830B003B0BDE8F08F00BFEC
:1004540044F6FC43C0F6000370B506461D68AB695C
:10046400002B29D0D8356B68AC68013B03D51FE05D
:100474006834013B1CD3B4F90C20002AF8D10025C0
:100484004FF0FF33656604F15C00E38129460123E4
:100494002560A3810822A560656025616561A56169
:1004A40000F052FF6563A563A564E564204670BD52
:1004B400286828B10546D6E72846FFF745FFD1E767
:1004C40030460421FFF722FF28600028F2D10C23D4
:1004D40004463360EAE700BF704700BF704700BFBF
:1004E400704700BF704700BF40F2E40340F2FD21B3
:1004F400C2F20003C0F60001186800F0C9BA00BFD8
:1005040040F2E40340F20131C2F20003C0F60001FC
:10051400186800F0BDBA00BFF8B540F2D814C2F2B2
:1005240000040F46054600F069FFA3685E6826F0E4
:10053400030606F57E630F33DF1B3F0B013F3F03CA
:10054400B7F5805F07DB0021284601F069F9A3684D
:100554009B19984204D0284600F052FF0020F8BDB1
:100564007942284601F05CF9B0F1FF3F10D040F227
:100574001863A168C2F20003F61B284646F0010680
:100584001A684E60D71B1F6000F03AFF0120F8BDC7
:100594000021284601F044F9A368C21A0F2ADADDC3
:1005A40040F2E05440F21861C2F20004C2F20001C9
:1005B40042F001025A602368C01A0860CBE700BF0A
:1005C4002DE9F0410D460446002958D000F016FFED
:1005D400A5F1080240F2D8105668C2F2000026F0D5
:1005E4000103D0F808C0D1188C454F6827F00307E1
:1005F40065D016F001064F6031D00026CD196D6824
:1006040015F0010F06D1DB19002E4BD08D68C96897
:10061400E9608D6043F00101D3505160D6B9B3F560
:10062400007F2ED3590A04296BD89E093836F50069
:100634004519A968A94203D169E089688D4204D0AB
:10064400486820F003008342F7D3CB68D3609160FD
:10065400CA609A602046BDE8F04100F0D1BE55F86A
:10066400085C00F1080C521B5B199568654546D07F
:10067400D2F80CC0C5F80CC0CCF80850BEE7BDE8F1
:10068400F081DB080125466800EBC3019B1015FAD5
:1006940003F3D1608D6846EA030343609560EA6022
:1006A4008A60D7E78D682B4FBD42B0D1EA6043F032
:1006B4000101AA60D56095605160D350CAE716F075
:1006C400010F3B4407D155F8081C521A5B18956872
:1006D400D168E9608D6040F2E45143F00105C2F253
:1006E4000001556082600A689342B3D340F21463F8
:1006F4002046C2F200031968FFF70EFFAAE701269D
:100704007CE714290CD801F15B06F50090E701257C
:100714004768B6100B46B54047EA0505456095E7BE
:10072400542903D81E0B6E36F50081E7B1F5AA7F74
:1007340003D8DE0B7736F5007AE740F25455A94228
:1007440003D89E0C7C36F50072E74FF47C757E2648
:100754006EE700BFE00100202DE9F04F85B0904620
:100764000C4602909068002800F089808B891FFA5B
:1007740083F919F0080F00F0A3800A69002A00F039
:100784009F8019F0020BD8F800501CBF4FF00009ED
:100794004F467BD119F001091DBFDC46DA465F469E
:1007A4004E4636D156B39BB2A76813F4007F00F0CF
:1007B4009280BE42BB46C0F0B48013F4906F40F008
:1007C400178120680397374649465A4600F062FD70
:1007D400B246A268236803995B442360521AA2605C
:1007E400D8F80830D144CAEB0606DF1BC8F80870F5
:1007F400002F00F09480A389002ED4D1D5F8009066
:100804006E680835CEE7D5F800A04FF0000C6F688D
:100814000835002FF7D0BCF1000F00F0BA80226930
:10082400BB4534BFD946B94620686369A66890427F
:1008340094BF002201229E19B145D4BF002202F0C8
:100844000102002A40F08C8099456FDBA66A52466B
:10085400216A0298CDF804C0B047DDF804C0061E32
:1008640040F39080BBEB060B73D0D8F80830B24449
:10087400BF1B9E1BC8F80860002ECAD1304605B0C5
:10088400BDE8F08FD5F800906F680835B7F5806F34
:1008940034BF3B464FF480634A460298002FF1D0A0
:1008A400A66A216AB04700288144C0EB070769DDC6
:1008B400D8F80860301AC8F808000028E6D1DEE746
:1008C4000298214601F020F8002840F0D280A38944
:1008D4001FFA83F955E72369BA462068984294BF02
:1008E40000230123B7422CBF002303F00103002B94
:1008F4006FD163699E425FD3A76A4A460298216A10
:10090400B847071E3EDDD8F80830BA46D144CAEBD2
:100914000606DF1BC8F80870002F7FF46CAF38465A
:10092400ADE72068B346039637464DE74A4651463D
:100934004E46CDF804C000F0ADFCA2682368BBEBC2
:10094400060BC9EB0202DDF804C04B44A26023602D
:100954008BD10298214601F0CFF898B9DC4684E7A0
:1009640051463246CDF804C000F094FC2368214679
:1009740002989B19236001F0BFF8DDF804C0002839
:100984003FF470AFA3894FF0FF3043F04003A381DD
:1009940075E750460A213A4607F1010B00F08CFB3B
:1009A4004FF0010C00283FF43AAF00F1010B4FF077
:1009B400010CCAEB0B0B32E73246494600F06AFCE5
:1009C400A26823683746921BB2469B19A260236033
:1009D40006E749463A4600F05DFC23680298214642
:1009E400DB19236001F088F800283FF4F9AEC9E769
:1009F40067692268216907EB4707C1EB020A07EB25
:100A0400D7770AF1010080197F1087423A463CBF2C
:100A14000746024613F4806F1DD00298114600F079
:100A24008DF8834600282ED02169524600F08AFBB7
:100A3400A38923F4906343F08003A3810BEB0A00A2
:100A4400CAEB0703C4F810B0B34667613746039690
:100A54002060A360B8E6029800F0D4FC8346002826
:100A6400ECD121690298FFF7ABFD02990C230B60CE
:100A740088E702994FF0FF30A38943F04003A38134
:100A840009230B60FBE6029A0C2313607AE700BF8C
:100A94002DE9F84307468946FFF71EFDD83708BFFE
:100AA400B8461AD04FF000087E68BC68002E11DDED
:100AB4000025B4F90C30013543B1B4F90E302046A9
:100AC400B3F1FF3F02D0C84748EA0008B54204F139
:100AD4006804EED13F68002FE6D1FFF7FFFC4046E3
:100AE400BDE8F8832DE9F04780468A46FFF7F4FC19
:100AF40018F1D80708BFB9461BD04FF000097E682B
:100B0400BC68002E12DD0025B4F90C3001354BB160
:100B1400B4F90E3021464046B3F1FF3F02D0D0472E
:100B240049EA0009B54204F16804EDD13F68002F99
:100B3400E5D1FFF7D3FC4846BDE8F0872DE9F04F37
:100B440001F10B04162C83B0064631D924F00704B6
:100B5400E30F8C422CBF194643F00101002930D128
:100B6400304600F04BFCB4F5FC7F2FD24FEAD40C96
:100B740040F2D815C2F2000505EBCC022F46D3682B
:100B8400934200F02D825C6803F10808DA6830466D
:100B940024F0030499681B195C68CA6044F00104DA
:100BA40091605C6000F02CFC404603B0BDE8F08F1F
:100BB400002310248C422CBF194643F00101002964
:100BC400CED00C234FF000083360EDE75FEA542CDD
:100BD40004BF4FEAD40C4FEACC0040F0868040F2C8
:100BE400D815C2F2000528182F46C368984206D1CA
:100BF4000DE0002980F27981DB68984207D05A68B9
:100C040022F00302111B0F29F3DD0CF1FF3C0CF160
:100C1400010CBD4A93689A4208BF786824D058688A
:100C240020F00300011B0F2900F3C0810029D260CA
:100C3400926080F29480B0F5007F80F07781C008E4
:100C44004FF0010ED7F8048007EBC00180100EFAB4
:100C540000F0D960D1F808E040EA08007860C3F8F1
:100C640008E0CEF80C308B604FF0010E4FEAAC0375
:100C74000EFA03FE86457DD810EA0E0F08D12CF03B
:100C8400030C4FEA4E0E0CF1040C10EA0E0FF8D0D0
:100C940007EBCC0AE146D046D8F80C00804507D1D2
:100CA40096E1002B80F2A681C068804500F0908117
:100CB400416821F003010B1B0F2BF2DD8046C56850
:100CC400011944F0010E58F8087F43F00104C0F8FC
:100CD40004E030464C60FD60AF60D1609160CA6052
:100CE4008A60CB5000F08CFB5EE7BCF1040F9EBF22
:100CF4004FEA941C0CF1380C4FEACC007FF66FAF2E
:100D0400BCF1140F9CBF0CF15B0C4FEACC007FF6D6
:100D140066AFBCF1540F9EBF4FEA143C0CF16E0C4D
:100D24004FEACC007FF65BAFBCF5AA7F9EBF4FEACB
:100D3400D43C0CF1770C4FEACC007FF650AF40F274
:100D440054539C4595BF4FEA944C4FF47C700CF17E
:100D54007C0C4FF07E0C98BF4FEACC003FE71A188A
:100D640003F108083046536843F00103536000F070
:100D740047FB19E7D7F80880D8F8043023F00309B3
:100D84004C45C4EB090294BF002301230F2AD8BFAA
:100D940043F00103002B00F0B98040F2146AD5F847
:100DA4000834C2F2000A3046B3F1FF3FDAF80020FB
:100DB40002F1100BA3441FBF0BF57E6B0BF11F0B4D
:100DC4002BF47E6B2BF01F0B594600F029FDB0F17C
:100DD400FF3F034600F0188108EB0901814200F24D
:100DE4001081DAF8042081425A44CAF8042000F041
:100DF4003E81D5F808E440F2D815C2F20005BEF1F0
:100E0400FF3F17BF8218C5F80804C1EB0201CAF8F6
:100E1400041010F0070517BFC5F108054FF48055FD
:100E2400431905F5805503EB0B0230460193120577
:100E3400120DAD1A294600F0F3FC019BB0F1FF3FFF
:100E440000F02C81C11A491941F00101DAF804209B
:100E5400B84540F2146BBB602A44C2F2000B5960DF
:100E6400CAF8042017D0B9F10F0F40F2E180A9F1BC
:100E74000C03D8F8045023F00703052008EB030102
:100E84000F2B05F0010543EA0505C8F80450486036
:100E9400886000F2FB80DAF82C1040F21463C2F28E
:100EA40000038A42DAF8301088BFDA6240F2146331
:100EB4008A42C2F2000340F2A780D7F808801A637E
:100EC400D8F8043023F003039C42C4EB030294BF1C
:100ED400002301230F2AD8BF43F00103B3B13046E6
:100EE4004FF0000800F08CFA5EE69A18D9689C6806
:100EF40003F108085568304645F00103E1608C6051
:100F0400536000F07DFA4FE6E001002008EB040393
:100F140042F0010244F001043046C8F8044008F1EC
:100F240008085A60BB6000F06BFA3DE6410A0429E8
:100F34009CBF4FEA901E0EF1380E1DD9142998BF9C
:100F440001F15B0E18D954299CBF4FEA103E0EF1F3
:100F54006E0E11D9B1F5AA7F9CBF4FEAD03E0EF1B7
:100F6400770E09D940F2545E714596BF4FEA904E10
:100F74004FF07E0E0EF17C0E07EBCE08D8F8081069
:100F8400414503D147E08968884505D0D1F804E09C
:100F94002EF0030E7045F6D3D1F80CE0C3F80CE044
:100FA40099607868CB60CEF808305DE61D1941F091
:100FB4000107D56044F00104956030465C6003F19C
:100FC4000808EA60AA606F60695000F019FAEBE55E
:100FD40009F1010919F0030F2FD008F108085BE6A5
:100FE40003F108025B699A4208BF0CF1020C3FF45A
:100FF40010AEC8E580464318C268304658F8081F4A
:10100400CAE5B8453FF4EDAED7F80880D8F8043007
:1010140023F0030358E74FF00109D7F804804FEA9F
:10102400AE008E4609FA00F048EA00007860B5E7A1
:10103400984601225A60002346E751461CF0030FEC
:101044000B460CF1FF3C2CD053F808199942F5D00B
:101054007B684FEA4E0E9E453FF68CAEBEF1000F04
:101064003FF488AE1EEA030F20D0CC4610E64FEAC8
:10107400015E4FEA1E5EBEF1000F7FF4BAAEBB689C
:101084000BEB090141F00101596004E7304608F116
:101094000801FFF795FADBF80420FCE6012100259E
:1010A400D4E67B6823EA0E037B60D1E74FEA4E0E59
:1010B40009F10409D6E700BF10F0030F034670B42A
:1010C400C9B211D0002A22D003788B421DD0013A34
:1010D400013005E0DAB110F8014B013A8C4218D026
:1010E40010F0030F0346F5D1032A14D87AB1187807
:1010F40088420ED0541E5D1C03E015F8016B8E422D
:1011040003D0013C2846F8D2002070BC704710463A
:10111400FBE71846F9E741EA012646EA064618467F
:1011240053F8044B86EA0404A4F1013525EA0404C7
:1011340014F0803F03D1043A1846032AEFD803463B
:10114400D4E700BF032A2DE9F00109D82AB100230E
:10115400CC5CC45401339342FAD1BDE8F00170472A
:101164000B468218014603E02478013301F8014B51
:1011740011F0030F1C46F7D113F003055DD06E4246
:10118400C5F1040CED009B594FEACC0C08E0043483
:10119400A7593B4607FA0CF748EA070741F8047BCE
:1011A400571A23FA05F8032FF1DC03E014F8013B86
:1011B40001F8013B8A42F9D8CFE753F8404C41F893
:1011C400404C53F83C4C41F83C4C53F8384C41F8F3
:1011D400384C53F8344C41F8344C53F8304C41F803
:1011E400304C53F82C4C41F82C4C53F8284C41F813
:1011F400284C53F8244C41F8244C53F8204C41F823
:10120400204C53F81C4C41F81C4C53F8184C41F832
:10121400184C53F8144C41F8144C53F8104C41F842
:10122400104C53F80C4C41F80C4C53F8084C41F852
:10123400084C53F8044C41F8044C561A1D460C460D
:10124400403340313F2EB8DC2B460FE053F8101CDE
:1012540044F8101C53F80C1C44F80C1C53F8081CDC
:1012640044F8081C53F8041C44F8041C161B2146BB
:101274001D46103410330F2EE8DC2B4602E02468A0
:1012840041F8044B551A1C46032D03F10403F6DC04
:1012940090E700BF88420346F0B40C460ED98D187F
:1012A400A8420BD242B1831829469A1A11F8014D6B
:1012B40003F8014D9342F9D1F0BC70470F2A38D995
:1012C40041EA000515F0030F35D1A2F1100601F132
:1012D40010050B460246370905EB07151C68146018
:1012E4005C6854609C689460DC681033D46010328D
:1012F4009D42F3D17C1C06F00F022401032A00EB6B
:101304000403214414D9043A0C461D464FEA920CB6
:1013140001EB8C07043754F8046BBC4245F8046BAA
:10132400F9D10CF1010402F00302A4001B190919FC
:101334000C46002AC0D02146A21811F8014B914254
:1013440003F8014BF9D1B7E7032AC9B270B408D83E
:101354002AB10346121803F8011B9342FBD170BC57
:1013640070478218044601E004F8011B14F0030FCF
:10137400FAD14FF0013303FB01F31FE044F8403C82
:1013840044F83C3C44F8383C44F8343C44F8303CA1
:1013940044F82C3C44F8283C44F8243C44F8203CD1
:1013A40044F81C3C44F8183C44F8143C44F8103C01
:1013B40044F80C3C44F8083C44F8043C161B25460D
:1013C40040343F2EDADC2C4607E044F8103C44F865
:1013D4000C3C44F8083C44F8043C161B25461034E5
:1013E4000F2EF2DC01E045F8043B541B032CFADC1D
:1013F40001E005F8011B9542FBD3B0E7704700BF3D
:10140400704700BF2DE9F04F0D4683B00746904664
:10141400002900F0558108F10B04A1F1080AFFF737
:10142400EDFF162CDAF8043000F297801022002029
:101434001446444538BF40F00100002840F046817E
:1014440023F0030B9345A4BF0AF108085E466EDA45
:1014540040F2D8190AEB0B01C2F20009D9F808E0EE
:101464008E4500F038814E6826F0010C8C44DCF87F
:1014740004C01CF0010F18BF014673D013F0010F14
:1014840040F0928055F8083CC3EB0A0CDCF80430B9
:1014940023F00303002900F0D180714500F04F814F
:1014A4005B44C618B24200F3CA80CB68E046896840
:1014B400ABF10402242ACB609960DCF80C3058F8B4
:1014C400081FCB60996000F29681132A414621D906
:1014D4002B460CF1100153F8040BCCF80800686893
:1014E4001D1D1B2ACCF80C0014D958682B1D0CF1B7
:1014F4001801CCF8100068680835242ACCF81400C8
:1015040008D15B680CF12001CCF818306B68083501
:10151400CCF81C302A460B46E24652F8040B43F83A
:10152400040B6868486052685A60DCF80430301B69
:101534000F2824D80AEB060203F0010343EA060647
:10154400CAF80460536843F0010353603846FFF758
:1015540057FF404603B0BDE8F08F24F0070422464D
:10156400E00F66E726F0030000EB0B06B24285DCD1
:10157400CA680AF108088968CA609160D7E70AEB6B
:10158400040103F001030A1843EA040440F00100D3
:10159400CAF80440486038465368083143F00103F0
:1015A4005360FFF70DF8D1E741463846FFF7C6FA16
:1015B40080460028CAD0DAF80430A0F1080223F0EB
:1015C400010151448A4200F00E81ABF10402242A45
:1015D40000F2B180132A294603461DD92C4654F83B
:1015E400043B211D40F8043B031D6E681B2AC8F808
:1015F400046011D9D4F804E00E1D1C1DC0F804E0E9
:101604004868083158600833242A05D1726862603A
:101614004A6808315A60083308461A4650F8044BA1
:1016240042F8044B49685960436853603846294678
:10163400FEF7C6FF3846FFF7E3FE8AE75B449A42AB
:10164400B2DCE046DCF80C10ABF1040258F8080FE9
:10165400242AC16088605FD8132A404621D92946CC
:101664000CF1100051F8046BCCF808606E680D1D85
:101674001B2ACCF80C6014D94E68291D0CF11800F3
:10168400CCF810606E680835242ACCF8146008D1B0
:101694004A680CF12000CCF818206A680835CCF8A8
:1016A4001C2029461E460246E24651F8043B42F8F5
:1016B400043B6B6843604B685360DCF8043036E7E6
:1016C400114603B0BDE8F04FFFF738BA0C234FF0D2
:1016D40000083B603DE7DEF8040004F1100C20F044
:1016E400030000EB0B016145B8BF7146FFF6C6AEBF
:1016F4000AEB04030A1B42F00102C9F808305A60DD
:101704003846DAF80420A84602F001031C43CAF85C
:101714000440FFF775FE1CE7404629460193CDF8C7
:1017240000C0FFF7B7FDDDF800C0019BE2461E468E
:10173400DCF80430FBE62946FFF7ACFD76E75B44B2
:1017440004F11001C6188E42FFF679AFE046DCF8CA
:101754000C30ABF1040258F8081F242ACB609960BE
:1017640055D8132A414621D92B460CF1100153F8C0
:10177400040BCCF8080068681D1D1B2ACCF80C006B
:1017840014D958682B1D0CF11801CCF810006868A6
:101794000835242ACCF8140008D15B680CF1200128
:1017A400CCF818306B680835CCF81C302A460B4648
:1017B40052F8040B43F8040B6868486052685A6096
:1017C4000CEB0403321B42F00102C9F808305A60E2
:1017D4003846DCF8042002F001031C43CCF8044032
:1017E400FFF70EFEB5E650F8046C0AF1080826F07F
:1017F40003065E449BE640462946CDF800C0FFF749
:1018040049FDDDF800C0E246DCF804308FE64046CE
:101814002946CDF800C0FFF73DFDDDF800C0CFE755
:1018240038B540F6DC64C2F20004054608460023DD
:10183400236000F0D7FDB0F1FF3F00D038BD23682E
:10184400002BFBD02B6038BD10B50C46B1F90E103F
:1018540000F0D4FA0028ABBF636DA3891B1823F4EE
:101864008053ACBF6365A38110BD00BF00207047E7
:101874002DE9F0411D468B890C460746164613F4A4
:10188400807F06D00223B1F90E10002200F02AFA5C
:10189400A38923F480533846A3813246B4F90E1049
:1018A4002B46BDE8F04100F019B800BF10B50C4656
:1018B400B1F90E1000F016FAA389B0F1FF3F15BF7D
:1018C400606523F4805343F48053A38118BFA3813C
:1018D40010BD00BFB1F90E1000F098B838B540F64D
:1018E400DC64C2F200040546084611461A46002389
:1018F400236000F0F5FDB0F1FF3F00D038BD236850
:10190400002BFBD02B6038BD70B540F2E405C2F269
:10191400000506460C46286810B18369002B36D0B2
:1019240044F69C43C0F600039C4238D044F6BC43C2
:10193400C0F600039C4241D044F6DC43C0F60003E9
:101944009C4204BF2B68DC68A289104693B213F052
:10195400080F18BF216934D021B313F0010207D056
:1019640063690022A2605B42A36141B1002070BDA3
:1019740013F0020F08BF6269A2600029F6D1A3899F
:1019840013F0800F14BF4FF0FF30002070BDFEF73E
:10199400DBFC44F69C43C0F600039C42C6D12B6892
:1019A4005C68D1E703F42072B2F5007FD5D02146FC
:1019B400304600F0ADF9A3892169CEE72B689C6815
:1019C400C2E713F0100F1DD013F0040F08BF2169F4
:1019D40013D0616B49B104F14403994203D03046FA
:1019E400FEF7EEFDA089002363634FF6DB722169E5
:1019F40000EA020200236360216042F00803A3812D
:101A04009BB2A9E74FF0FF3070BD00BF38B540F678
:101A1400DC64C2F20004054608460023236000F09B
:101A24009BFCB0F1FF3F00D038BD2368002BFBD0F6
:101A34002B6038BD70B50C4605460E46002948D0CB
:101A4400FEF74AFD15B1AB69002B44D044F69C4324
:101A5400C0F600039C4208BF6C680ED044F6BC4339
:101A6400C0F600039C4208BFAC6806D044F6DC43D1
:101A7400C0F600039C4208BFEC68B4F90C6036B3AE
:101A84002846214600F038F8236B06463BB1284629
:101A9400216A984736EA200628BF4FF0FF36A3890B
:101AA40013F0800F1BD1616B41B104F144039942DF
:101AB40002D02846FEF784FD00236363A16C21B1A4
:101AC4002846FEF77DFD0023A3640023A381FEF7CF
:101AD40005FD304670BD2846FEF736FCB6E72846BD
:101AE4002169FEF76DFDDEE740F2E4030146C2F230
:101AF400000318689EE700BF2DE9F0410C460E690B
:101B04008046002E4AD018B18369002B00F08E80E5
:101B140044F69C43C0F600039C4208BFD8F8044036
:101B240010D044F6BC43C0F600039C4208BFD8F86A
:101B3400084007D044F6DC43C0F600039C4208BFCB
:101B4400D8F80C40A689002E28D033B213F0080030
:101B540027D0266916B313F0030F2568266008BF43
:101B64006369C6EB050518BF0023002DA36002DCE2
:101B74009AE0002D74DD32462B46A76A4046216A5E
:101B8400B8470028C0EB05050644F2DCA3894FF0F2
:101B9400FF3043F04003A381BDE8F0813046BDE847
:101BA400F081626846F40063A381002A5BDDE66A83
:101BB400002EF3D09BB2002213F48057D8F80050C3
:101BC400C8F8002018BF626D33D013F0040F05D09D
:101BD4006168636B521A0BB1236CD21A002340461E
:101BE400216AB047B0F1FF3F2FD0A38900212269B9
:101BF40023F4006361601B0422601B0CA38113F4B3
:101C0400805F03D0B0F1FF3F31D06065616BC8F8ED
:101C14000050002931D004F14403994202D04046D7
:101C2400FEF7CEFC00206063BDE8F081FEF78CFB7C
:101C34006EE73A4601234046216AB047B0F1FF3FC0
:101C440002461DD0A389E66ABFE7D8F800301D2BF1
:101C54009CD84FF40172C8F200029A40C5D495E7AB
:101C64000020BDE8F081226C002AA0DCF9E7D8F856
:101C74000030002BCAD16065C8E70846BDE8F08192
:101C8400D8F80030002BDDD0A3F11D02514241EB06
:101C94000201162B14BF0B4641F001033BB1C8F8F7
:101CA40000503846BDE8F0810020BDE8F081A389EA
:101CB40043F04003A381BDE8F08100BF30B140F29E
:101CC400E4030146C2F20003186815E744F6FC4336
:101CD40041F6FD21C0F60003C0F600011868FEF7C6
:101CE40001BF00BF38B540F6DC64C2F2000405460B
:101CF400084611461A460023236000F065FBB0F144
:101D0400FF3F00D038BD2368002BFBD02B6038BDCB
:101D14008B89F0B50C469AB291B012F0020F0546C9
:101D24003BD1B1F90E10002918DB01AA00F07CF8B0
:101D3400002811DB029B03F47043A3F500525742C1
:101D440047EB0207B3F5004F3AD0A3894FF48066FE
:101D540043F40063A3810BE0A3899AB212F0800FCD
:101D640043F4006314BF40264FF480660027A38128
:101D740028463146FEF7E2FE002831D0A28940F21F
:101D84000533C0F60003AB6242F080032060A381F8
:101D94002061666147B911B0F0BD01F147030B60E2
:101DA4000B6101234B61F6E72846B4F90E1000F0ED
:101DB40051F80028EFD0A38943F00103A381EAE797
:101DC40041F6B103E26AC0F600039A42BDD1A2898A
:101DD4004FF480631E46236542EA0303A381C7E7E9
:101DE400A38913F4007FD6D104F1470243F0020320
:101DF4002260A381012322616361CCE738B540F6F8
:101E0400DC64C2F200040546084611461A46002363
:101E1400236000F023FBB0F1FF3F00D038BD2368FE
:101E2400002BFBD02B6038BD38B540F6DC64C2F221
:101E340000040546084611460023236000F098FA82
:101E4400B0F1FF3F00D038BD2368002BFBD02B60DE
:101E540038BD00BF38B540F6DC64C2F20004054664
:101E640008460023236000F095FAB0F1FF3F00D04C
:101E740038BD2368002BFBD02B6038BD80B582B001
:101E840000AF4FF080004FF0010102F033FD4FF43A
:101E94000063BB804FF00303BB714FF01403FB716D
:101EA40007F104030E48194602F01AFC4FF08000B3
:101EB4004FF0010102F01EFD4FF47073BB804FF030
:101EC4000303BB714FF01003FB7107F104030448D3
:101ED400194602F005FC07F10807BD4680BD00BFA6
:101EE400001C014080B500AF4FF0000002F0F4FC8C
:101EF4004FF400004FF0010102F01EFD80BD00BF51
:101F040080B582B000AF4FF4C06002F06BFB4FF0BD
:101F140014033B714FF001037B714FF00003BB715D
:101F24004FF00103FB7107F10403184602F06CFB48
:101F340007F10807BD4680BD80B582B000AF0346F7
:101F4400FB71FB79002B05D007484FF4006102F0C8
:101F5400B5FC04E004484FF4006102F0A1FC07F171
:101F64000807BD4680BD00BF001C014080B582B09B
:101F740000AF364B1B68B3F5006F03D1334B4FF002
:101F840000021A60314B1A68314B1B689A4204D123
:101F9400304B4FF000021A7053E02C4B1A682C4B54
:101FA4001B689A4206D9294B1B68C3F500622A4B69
:101FB4001A6006E0264B1A68244B1B68D21A264B7B
:101FC4001A60254B1B68402B12D9204B1B68FB80E1
:101FD4004FF04003BB801D4B1B6803F140021B4BB9
:101FE4001A601D4B1B68A3F140021B4B1A6010E0E2
:101FF400164B1B68FB80184B1B68BB80134B1A687D
:10200400154B1B68D218114B1A60134B4FF000028A
:102014001A60104B4FF001021A70FA880F4BD21855
:10202400BB8810464FF0C0011A4601F05BFFBB8825
:102034004FF00100194602F0EDF94FF0010002F0F3
:102044007DF807F10807BD4680BD00BFF0050020FC
:10205400EC050020F8050020F40500204C060020C3
:1020640080B483B000AF0346FB710D4B1B680D4A6F
:10207400F979D1540A4B1B6803F10102084B1A6029
:10208400074B1A6840F2FF739A4203D9044B4FF08E
:1020940000021A6007F10C07BD4680BC704700BF00
:1020A400EC0500204C06002080B584B000AF104B36
:1020B4001B68FB600F4B1B68BB600F4B1B687B608E
:1020C400FA687B68D318FB60FB68002B0BD0F868B8
:1020D4000A494FF0080200F015F8B86808494FF0B3
:1020E400040200F00FF807F11007BD4680BD00BFE1
:1020F400E8F7FF1FECF7FF1FF0F7FF1F02000020B7
:102104001200002080B487B000AFF860B9601346B5
:10211400FB714FF00003FB754FF00003FB7531E0DA
:10212400FB684FEA1373092B0DD8FB7D4FEA430379
:10213400BA68D318FA684FEA1272D2B202F13002C6
:10214400D2B21A700CE0FB7D4FEA4303BA68D3188D
:10215400FA684FEA1272D2B202F13702D2B21A709E
:10216400FB684FEA0313FB60FB7D4FEA430303F173
:102174000103BA68D3184FF000021A70FB7D03F113
:102184000103FB75FA7DFB799A42C9D307F11C0759
:10219400BD4680BC704700BF80B582B000AF034627
:1021A400FB71FB79A3F13003342B00F2A98001A267
:1021B40052F823F0F9220008ED2200080523000854
:1021C400052300080523000805230008052300084B
:1021D400052300080523000805230008052300083B
:1021E400052300080523000805230008052300082B
:1021F40005230008052300088D2200089922000801
:10220400A5220008B12200080523000805230008C0
:1022140005230008052300080523000805230008FA
:1022240005230008052300080523000805230008EA
:1022340005230008052300080523000805230008DA
:1022440005230008052300080523000805230008CA
:1022540005230008052300080523000805230008BA
:1022640005230008052300080523000805230008AA
:102274000523000805230008BD220008C922000820
:10228400D5220008E12200081F484FF0400102F067
:1022940007FB35E01C484FF0800102F001FB2FE002
:1022A40019484FF4807102F0FBFA29E016484FF404
:1022B400007102F0F5FA23E013484FF0400102F0F8
:1022C400FDFA1DE010484FF0800102F0F7FA17E024
:1022D4000D484FF4807102F0F1FA11E00A484FF40E
:1022E400007102F0EBFA0BE007484FF4707102F052
:1022F400D7FA05E004484FF4707102F0DFFA00BF2A
:1023040007F10807BD4680BD001C014080B500AF41
:1023140000F078F980BD00BF80B582B000AFFFF750
:10232400ADFDFFF7DFFDFFF7EBFD01F01DFC0848F5
:10233400FDF7AAFF4FF000037B6003E07B6803F125
:1023440001037B607A68034B9A42F7D9EFE700BF39
:10235400B84B0008FEFF0F0080B483B000AF786074
:102364004FF0FF33184607F10C07BD4680BC704799
:1023740080B483B000AF786039603B684FF400529A
:102384005A604FF00003184607F10C07BD4680BCA5
:10239400704700BF80B483B000AF78607B6803F1FE
:1023A4000003022B02D84FF0010305E0054B4FF068
:1023B40009021A604FF00003184607F10C07BD46E6
:1023C40080BC7047DC0E002080B485B000AFF8609C
:1023D400B9607A604FF00003184607F11407BD4650
:1023E40080BC704780B584B000AF7860174B1B6821
:1023F400002B02D1154B164A1A60144B1B68FB6064
:1024040002F0EEFA0346BB60104B1A687B68D218E0
:10241400BB689A420DD94FF002000E494FF01902E1
:1024240000F05EF80C4B4FF00C021A604FF0FF33D3
:1024340006E0064B1A687B68D218044B1A60FB68E6
:10244400184607F11007BD4680BD00BF00060020F6
:10245400E00E0020C84B0008DC0E002080B588B0D8
:1024640000AFF860B9607A604FF00003BB61FB68AD
:10247400002B26D14FF00003FB611CE000BF16487F
:102484004FF0200102F08CFA0346002BF7D01248DB
:1024940002F074FA0346FB75BB68FA7D1A70BB68D8
:1024A40003F10103BB60BB6903F10103BB61FB6979
:1024B40003F10103FB61FA697B689A42DEDBBB69C5
:1024C40005E0064B4FF009021A604FF0FF3318463F
:1024D40007F12007BD4680BD00380140DC0E002016
:1024E40080B586B000AFF860B9607A60FB68012BF4
:1024F40002D0022B16D02BE04FF000037B610CE0DE
:10250400BB681B78BA6802F10102BA601846FFF78B
:10251400A7FD7B6903F101037B617A697B689A42B9
:10252400EEDB1CE04FF000037B610CE0BB681B7822
:10253400BA6802F10102BA601846FFF791FD7B699F
:1025440003F101037B617A697B689A42EEDB06E062
:10255400064B4FF009021A604FF0FF3300E07B682E
:10256400184607F11807BD4680BD00BFDC0E0020E9
:1025740080B500AFFFF7FAFC80BD00BF80B582B024
:1025840000AF4FF003000F4902F004F80346BB808C
:102594004FF00003FB8009E0FB880A4AD35C18462D
:1025A400FFF7FAFDFB8803F10103FB80FA88BB887F
:1025B4009A42F1D34FF0030001F0ECFD07F1080754
:1025C400BD4680BD5C0E002080B500AF0B4B1B6880
:1025D400052B12D10A4B1B68052B14BF00220122C4
:1025E400D2B203F10101064B1960002A05D0044B55
:1025F4004FF000021A60FFF7B9FC80BD0C06002002
:102604000406002080B500AF1E4B1B689AB21E4B17
:102614001A801D4B1B889BB203F400721B4B1B8852
:1026240002EA0303002B0DD0164B4FF6FF521A603B
:10263400174B1B78DBB203F10103DAB2144B1A70A7
:10264400FFF7C2FF104B1B889BB203F400420F4BF1
:102654001B8802EA0303002B01D001F0A7FA0A4BFE
:102664001B889BB203F48062084B1B8802EA0303B5
:10267400002B06D0034B4FF6FF321A60054B5B6804
:10268400984780BD445C00409C0E0020D40E00207E
:10269400080600206000002080B500AFFFF704FDAD
:1026A400064B1B684FF000029A7200F0E5F901F046
:1026B40057FF034B4FF000021A6080BDD00E00207C
:1026C4000C06002080B500AF484B1B684FF0000299
:1026D4009A72464B1B68464AD2795A72434B1B681E
:1026E4004FF00002DA724FF0000001F077FC4FF077
:1026F40000004FF4007101F085FC4FF000004FF032
:10270400100101F0A7FC4FF000004FF0400101F070
:1027140021FE4FF000004FF0800101F0F7FD4FF073
:10272400000001F063FD334B93F82C304FF00000B0
:10273400194601F08DFE4FF0000001F02BFD4FF023
:1027440001004FF0000101F05DFC4FF001004FF07B
:10275400C00101F0DBFD4FF001004FF0200101F05A
:1027640079FC4FF001004FF0000101F0ADFC4FF097
:1027740002004FF4C06101F045FC4FF002004FF439
:10278400807101F0C3FD4FF002004FF0000101F031
:102794009BFC4FF002004FF0200101F05BFC4FF076
:1027A40003004FF0000101F02DFC4FF003004FF443
:1027B400887101F0CFFD4FF003004FF0400101F0AC
:1027C40047FE4FF003004FF4405101F07DFC4FF001
:1027D40003004FF0000101F03DFC4FF0000001F058
:1027E4007BF9054B4FF001021A6080BDD00E00202A
:1027F400F84B0008600000200C06002080B483B071
:1028040000AF074B7B607B689B7A002B03D0054BA2
:102814004FF005021A6007F10C07BD4680BC7047F3
:10282400B00E00200C06002080B400AF034B4FF024
:1028340004021A60BD4680BC704700BF0C0600202D
:1028440080B400AF054B1B78202B03D1034B4FF012
:1028540000021A70BD4680BC704700BF0906002004
:1028640080B400AFBD4680BC704700BF80B584B063
:1028740000AF0346FB714FF00003FB60FB79212B93
:1028840009D11A4B1B681B7803F07F03212B12D14B
:10289400174BFB600FE0FB79202B0CD1134B1B680B
:1028A4001B7803F07F03212B01D1124BFB60124BE9
:1028B4004FF020021A70FB68002B02D14FF0020384
:1028C4000EE00A4B1B68FA689A61084B1B684FF0CC
:1028D40000025A82FB684FF0000098474FF0000353
:1028E400184607F11007BD4680BD00BFD00E00207A
:1028F4000D2A0008452A00080906002080B483B088
:1029040000AF0346FB710D4B1B681B7803F07F037C
:10291400212B0BD1FB79022B02D14FF0000307E0EE
:10292400FB79222B02D14FF0000301E04FF00203A8
:10293400184607F10C07BD4680BC7047D00E002036
:1029440080B582B000AF0346FB80FB88184604497B
:1029540000F0C6FB0346184607F10807BD4680BDD4
:10296400B400002080B582B000AF0346FB80FB8832
:102974001846044900F0B4FB0346184607F108075B
:10298400BD4680BDBC00002080B584B000AF0346C6
:10299400FB800D4B1B68DB78FB73FB7B042B02D99C
:1029A4004FF000030AE0FB7B4FEAC302074BD31846
:1029B400FA881046194600F093FB0346184607F1BF
:1029C4001007BD4680BD00BFD00E0020C40000200B
:1029D40080B483B000AF02460B46FA71BB71BB7979
:1029E400002B02D04FF0020307E0FB79012B02D940
:1029F4004FF0020301E04FF00003184607F10C0703
:102A0400BD4680BC704700BF80B483B000AF0346AE
:102A1400FB80FB88002B07D1074B1B684FF0080293
:102A24001A824FF0000300E0044B184607F10C072C
:102A3400BD4680BC704700BFD00E0020540000206B
:102A440080B483B000AF0346FB80FB88002B07D122
:102A5400074B1B684FF008021A824FF0000300E096
:102A6400044B184607F10C07BD4680BC704700BFF5
:102A7400D00E00205400002080B582B000AF4FF08B
:102A84000100FFF759FA4FF00103FB800E4BFA885F
:102A94001A600E4B4FF000021A800B4B0B4A12883F
:102AA4001A600B4B4FF000021A60084B4FF4E052CF
:102AB4001A80054B054A12881A604FF00003184625
:102AC40007F10807BD4680BD405C0040D40E0020DD
:102AD400445C004080B582B000AF0346FB80FB88B5
:102AE400002B07D10A4B1B684FF001021A824FF0EA
:102AF400000307E0074B1B681B689847044B1B68DF
:102B040003F10A03184607F10807BD4680BD00BF5C
:102B1400D00E0020CC0E002080B500AF104B1B68F7
:102B2400DA78104B5B789A4216D80D4B1B689B7869
:102B3400002B11D10A4B1B689B88002B0CD1084B2E
:102B44001B68074A1268D2789A72074B1B685B6845
:102B540098474FF0000301E04FF00203184680BD90
:102B6400D00E00205C000020CC0E002080B582B086
:102B740000AF0346FB80FB88002B07D10A4B1B6880
:102B84004FF001021A824FF0000307E0074B1B6865
:102B94009B689847044B1B6803F10C03184607F124
:102BA4000807BD4680BD00BFD00E0020CC0E00201B
:102BB40080B582B000AF204B1B689B691F4A126826
:102BC40051791E4A1268D27808461146984703463E
:102BD400FB711A4B1B689B7A002B25D0FB79002BC9
:102BE40009D1164B1B681B79002B04D1134B1B68AE
:102BF4009B78002B02D04FF0020317E0FB79002BE7
:102C040012D10F4B1B68DB6898470C4B1B680B4AAF
:102C140012685279DA72094B1B68084A1268D27832
:102C24001A734FF0000301E04FF00203184607F156
:102C34000807BD4680BD00BFA80E0020D00E0020AE
:102C4400CC0E002080B584B000AF0346FB80FB8827
:102C5400002B07D1494B1B684FF002021A824FF038
:102C6400000386E0464B4FF000021A80434B1B687A
:102C74001B7803F07F03002B2CD1404B1B685B7A3D
:102C8400FB73FB7B03F02003002B07D03C4B1B782A
:102C940043F00203DAB23A4B1A7006E0384B1B7861
:102CA40023F00203DAB2364B1A70FB7B03F04003C5
:102CB400002B07D0324B1B7843F00103DAB2304BC0
:102CC4001A7051E02E4B1B7823F00103DAB22C4B1F
:102CD4001A7049E0294B1B681B7803F07F03012B12
:102CE40001D1274B45E0254B1B681B7803F07F037C
:102CF400022B36D1214B1B685B79BB73BB7B03F082
:102D04000F037B73BB7B5BB2002B14DA7B7B4FEA34
:102D1400830303F1804303F5B8431B689BB203F0BC
:102D24003003102B20D1164B1B7843F00103DAB289
:102D3400134B1A7018E07B7B4FEA830303F1804343
:102D440003F5B8431B689BB203F44053B3F5805FAB
:102D54000AD10B4B1B7843F00103DAB2084B1A700B
:102D640002E04FF0000304E0064B1B681B69984720
:102D7400034B184607F11007BD4680BDD00E002056
:102D8400A00E0020CC0E002090B587B000AF784B89
:102D94001B681B7803F07F033B613B69002B0BD15D
:102DA400734B1B68724A1268527A22F02002D2B224
:102DB4005A724FF00003D5E03B69022B40F0D080FB
:102DC4006B4B1B685B88002B04D1694B1B681B7918
:102DD400002B02D04FF00203C4E0664BFB60644B4F
:102DE4001B685B79BB60BB6823F080037B607B68F6
:102DF4003B605F4B1B685B79DBB25BB2002B0CDA88
:102E04003B684FEA830303F1804303F5B8431B682F
:102E14009BB203F030037B610BE03B684FEA830312
:102E240003F1804303F5B8431B689BB203F440539A
:102E34007B61FB681B781A467B689A4207D97B69D9
:102E4400002B04D04A4B1B689B7A002B02D14FF015
:102E5400020387E0BB6803F08003002B19D03B68B2
:102E64004FEA830303F1804303F5B8431B689BB225
:102E740003F03003102B6CD13B68DBB2184601F031
:102E840013FA3B68DBB218464FF0300101F0E2F868
:102E94005FE03B684FEA830303F1804303F5B843E3
:102EA4001B689BB203F44053B3F5805F51D13B6878
:102EB400002B29D13B68DAB22F4B93F82C30104603
:102EC400194601F0C5FA3B684FEA830303F18043D6
:102ED40003F5B8431B689BB223F4804323F07003CB
:102EE4009CB284F480539CB284F400539CB23B683B
:102EF4004FEA830303F1804303F5B8431F4A44EACE
:102F0400020292B21A6024E03B68DBB2184601F078
:102F140099F93B684FEA830303F1804303F5B8430F
:102F24001B689BB223F4804323F070039CB284F4A7
:102F340080539CB284F400539CB23B684FEA8303F1
:102F440003F1804303F5B8430C4A44EA020292B207
:102F54001A600B4B1B685B6998474FF0000301E054
:102F64004FF00203184607F11C07BD4690BD00BF91
:102F7400D00E00205C000020600000208080FFFF55
:102F8400CC0E002090B585B000AF454B1B685B7933
:102F9400BB60BB6823F080037B607B683B60404B75
:102FA4001B685B79DBB25BB2002B0CDA3B684FEA3F
:102FB400830303F1804303F5B8431B689BB203F01A
:102FC4003003FB600BE03B684FEA830303F180436B
:102FD40003F5B8431B689BB203F44053FB60314BC9
:102FE4001B781A463B689A420CD92D4B1B685B88A8
:102FF400002B07D1FB68002B04D0294B1B689B7A5C
:10300400002B02D14FF0020345E0BB6803F08003BC
:10301400002B1DD03B684FEA830303F1804303F583
:10302400B8431B689BB223F4E04323F040039CB2F3
:1030340084F010039CB23B684FEA830303F180439E
:1030440003F5B843184A44EA020292B21A601CE03B
:103054003B684FEA830303F1804303F5B8431B68DD
:103064009BB223F4804323F070039CB284F4805316
:103074009CB23B684FEA830303F1804303F5B843F2
:10308400094A44EA020292B21A60084B1B689B691F
:1030940098474FF00003184607F11407BD4690BD4A
:1030A400D00E00205C0000208080FFFFCC0E0020AA
:1030B40080B500AF084B1B68074A1268527A42F089
:1030C4002002D2B25A72054B1B68DB6998474FF055
:1030D4000003184680BD00BFD00E0020CC0E002097
:1030E40080B485B000AF03463960FB800E4B1B688B
:1030F4005B8AFB60FB88002B0BD10B4B1B683A6887
:103104009188FA6892B28A1A92B21A824FF0000336
:1031140003E03B681A68FB68D318184607F11407E4
:10312400BD4680BC704700BFD00E002080B584B07F
:1031340000AF404B1B6803F11003BB60BB681B88E6
:103144007B60BB689B68002B2FD07B68002B2CD046
:10315400BB689B88FB60FA687B689A4201D97B68EC
:10316400FB60BB689B68FA6892B210469847386067
:10317400BB681A88FB689BB2D31A9AB2BB681A80E0
:10318400BB685A88FB689BB2D3189AB2BB685A8052
:103194004FF0000001F020F903461A46FB689BB289
:1031A400386811461A4600F0E3FEBB681B88002B02
:1031B4000DD0214B4FF440521A804FF000004FF0D5
:1031C400000101F027F91D4B4FF030021A80BB6853
:1031D4001A88BB689B889A4205D3164B1B684FF02C
:1031E40003021A7221E0BB681B88002B05D0114B27
:1031F4001B684FF005021A7217E0BB681B88002B8E
:1032040013D10C4B1B684FF006021A720C4B1B684F
:103214009BB21A460B4BD3184FEA43034FF00002FC
:103224001A60064B4FF030021A8007F11007BD46B2
:1032340080BD00BFD00E0020D60E0020D80E002086
:10324400505C00400230002080B586B000AF424B95
:103254001B6803F11003FB60FB681B88BB603E4BDB
:103264001B681B7A7B61BB68002B25D17B69042B0F
:1032740022D13A4B1B78012B16D1394B1B689BB2D8
:103284001A46384BD3184FEA43034FF000021A6032
:10329400354B4FF030021A804FF004037B612F4B03
:1032A4004FF000021A704DE04FF007037B612E4B84
:1032B4004FF010021A8045E0FB689B883B61BA68B6
:1032C4003B699A4202D84FF0040301E04FF0020335
:1032D4007B613A69BB689A4201D9BB683B61FB6870
:1032E4009B683A6992B21046984778604FF00000A4
:1032F40001F054F803461A463B699BB278681146BC
:103304001A4600F0EFFD3B699BB24FF000001946EE
:1033140001F080F8FB681A883B699BB2D31A9AB211
:10332400FB681A80FB685A883B699BB2D3189AB22F
:10333400FB685A800C4B4FF030021A800B4B4FF451
:1033440040521A80044B1B687A69D2B21A7207F190
:103354001807BD4680BD00BFD00E00201006002017
:10336400505C004002300020D80E0020D60E002011
:1033740080B584B000AF4FF00203FB73634B1B684E
:103384005B787B60614B1B681B7803F07F03002B29
:103394005BD17B68092B04D1FFF7BEFB0346FB73AB
:1033A4007EE07B68052B1DD1584B1B68DB78DBB2B4
:1033B4005BB2002B0EDB554B1B689B78002B09D1AD
:1033C400524B1B689B88002B04D1504B1B689B7A83
:1033D400002B03D04FF00803BB608DE04FF00003D7
:1033E400FB735DE07B68032B12D1484B1B68DB78D1
:1033F400012B09D1454B1B689B88002B04D1FFF797
:1034040057FE0346FB734BE04FF00203FB7347E0A8
:103414007B68012B43D13D4B1B68DB78012B10D11A
:103424003A4B1B689B88002B0BD1384B1B685B7A8B
:1034340003F02003002B04D0FFF7A6FC0346FB7324
:103444002EE04FF00203FB732AE0304B1B681B781D
:1034540003F07F03012B07D17B680B2B20D1FFF7EF
:10346400A7FB0346FB731BE0284B1B681B7803F088
:103474007F03022B0FD17B68012B04D1FFF784FC5F
:103484000346FB730CE07B68032B09D1FFF77AFD3D
:103494000346FB7304E04FF00203FB7300E000BF3C
:1034A400FB7B002B0FD01A4B1B685B697A68D2B286
:1034B400104698470346FB73FB7B032B03D14FF065
:1034C4000903BB6018E0FB7B002B03D04FF008031B
:1034D400BB6011E04FF00603BB600E4B1B689BB250
:1034E4001A460D4BD3184FEA43034FF000021A60FB
:1034F4000A4B4FF030021A80044B1B68BA68D2B2F0
:103504001A7207F11007BD4680BD00BFD00E00201F
:10351400A80E0020505C004002300020D80E00208D
:1035240080B58AB000AF874B1B685B78BB614FF0F6
:1035340000037B624FF000037B61BB69062B24D13F
:10354400804B1B681B7803F07F03002B40F0E48062
:103554007C4B1B689B78FB74FB7C012B04D17A4B5E
:103564001B68DB697B62D7E0FB7C022B04D1764BC2
:103574001B681B6A7B62CFE0FB7C032B40F0CC8092
:10358400714B1B685B6A7B62C6E0BB69002B7DD113
:103594006C4B1B685B88002B78D16A4B1B68DB88FB
:1035A400022B73D1674B1B681B79002B6ED1654BC3
:1035B4001B681B7803F07F03002B07D1614B1B684A
:1035C4009B88002B02D1614B7B62A5E05D4B1B689D
:1035D4001B7803F07F03012B16D15B4B1B689B699F
:1035E400584A1268527910464FF000019847034632
:1035F400002B40F08680534B1B689B7A002B00F015
:103604008280524B7B6287E04E4B1B681B7803F031
:103614007F03022B79D14B4B1B685B7903F00F03BB
:10362400FB60484B1B685B7903F07003BB60454B40
:103634001B685B79DBB25BB2002B0CDAFB684FEAE8
:10364400830303F1804303F5B8431B689BB203F083
:103654003003FB610BE0FB684FEA830303F1804313
:1036640003F5B8431B689BB203F44053FB61384B2A
:103674001B781A46FB689A4249D9BB68002B48D18B
:10368400FB69002B47D0314B7B6245E0BB69082BBB
:1036940009D12C4B1B681B7803F07F03002B3BD113
:1036A4002C4B7B6238E0BB690A2B35D1254B1B6858
:1036B4001B7803F07F03012B2ED1224B1B689B7ACE
:1036C400002B29D01F4B1B685B88002B24D11D4B7A
:1036D4001B681B79002B1FD11A4B1B68DB88012B3D
:1036E4001AD1194B1B689B69164A12685279104605
:1036F4004FF0000198470346002B0DD1164B7B6217
:103704000AE000BF08E000BF06E000BF04E000BF1D
:1037140002E000BF00E000BF7B6A002B1ED0094B13
:103724001B687A6992B25A82064B1B687A6A9A615C
:103734007B6A4FF0000098474FF0000387F823306E
:1037440021E000BFD00E0020A80E0020492C000864
:103754005C000020D92A0008712B0008444B1B6828
:103764001B69444A1268527810469847034687F802
:10377400233097F82330032B05D13E4B1B684FF0C1
:1037840009021A726FE03B4B1B681A8A4FF6FF73EB
:103794009A4205D1374B1B684FF009021A7262E056
:1037A40097F82330022B04D0324B1B681B8A002B62
:1037B40005D1304B1B684FF008021A7253E02D4BB1
:1037C4001B681B78DBB25BB2002B42DA294B1B6807
:1037D400DB887B60274B1B681B8A1A467B689A42EE
:1037E40005D9244B1B687A6892B21A8227E0214BD0
:1037F4001B681A8A1F4B1B68DB889A421FD21D4B19
:103804001B681A8A1A4B1B6893F82C309A4204D20C
:10381400194B4FF000021A7011E0164B1B681B8AFB
:10382400134A126892F82C2093FBF2F102FB01F286
:103834009B1A002B03D1104B4FF001021A700D4B51
:103844001B680B4A126892F82C209A82FFF7FCFC42
:1038540009E0084B1B684FF003021A72074B4FF440
:1038640040521A8000BF07F12807BD4680BD00BF43
:10387400A80E0020D00E002010060020D60E002036
:1038840090B583B000AF4FF00103FB80354B1B684C
:103894009BB21A46344BD3184FEA43031B689BB2BE
:1038A40003F1005303F540534FEA43033B602F4BAE
:1038B4001B681B7A092B3ED02C4B1A683B6819787D
:1038C400117003F101033B60284B1A683B681978B7
:1038D400517003F101033B603A68FB884FEA4303EC
:1038E400D3183B60214B1C683B681A8803F1020320
:1038F4003B60104600F018FE034663803A68FB887C
:103904004FEA4303D3183B60184B1C683B681A8882
:1039140003F102033B60104600F006FE0346A38059
:103924003A68FB884FEA4303D3183B600F4B1B688C
:103934003A681288DA800D4B1B684FF001021A7244
:103944000A4B1B68DB88002B02D1FFF711FD01E055
:10395400FFF7E6FD00F096F80346184607F10C075A
:10396400BD4690BD505C004004300020D00E0020C5
:1039740080B582B000AF214B1B681B7A7B607B68EB
:10398400022B02D07B68042B06D1FFF75DFC1B4B96
:103994001B681B7A7B6023E07B68062B1DD1174BC9
:1039A4001B685B78052B10D1144B1B681B7803F044
:1039B4007F03002B09D1114B1B68DB78184600F0FC
:1039C4008BF80F4B1B681B6A98470E4B1B689B6850
:1039D40098474FF008037B6002E04FF008037B60D8
:1039E400064B1B687A68D2B21A7200F04BF8034691
:1039F400184607F10807BD4680BD00BFD00E002061
:103A0400CC0E0020A80E002080B582B000AF1B4B66
:103A14001B681B7A7B607B68022B02D07B68042BBB
:103A240003D14FF008037B601AE07B68032B02D0BC
:103A34007B68052B06D1FFF779FB104B1B681B7ABB
:103A44007B600DE07B68072B07D10D4B1B68DB689F
:103A540098474FF008037B6002E04FF008037B6057
:103A6400064B1B687A68D2B21A7200F00BF8034650
:103A7400184607F10807BD4680BD00BFD00E0020E0
:103A8400A80E002080B500AF0F4B93F82C304FF0F8
:103A94000000194600F0DCFC0C4B1B681B7A082B59
:103AA40007D10B4B4FF480521A800A4B4FF010028F
:103AB4001A80064B1B681B7A092B14BF00230123B1
:103AC400DBB2184680BD00BF60000020D00E00208D
:103AD400D60E0020D80E002080B485B000AF034677
:103AE400FB711C4B1B78BB604FF00003FB6022E0B2
:103AF400FB68DBB24FEA830303F1804303F5B84369
:103B0400FA68D2B24FEA820202F1804202F5B84268
:103B1400126892B2114640F60F7201EA020242F4B0
:103B2400004242F08002F968C9B20A431A60FB6895
:103B340003F10103FB60FA68BB689A42D8D3064BD1
:103B4400FA7962F07F02D2B21A6007F11407BD4617
:103B540080BC70475C0000204C5C004080B400AF27
:103B6400BD4680BC704700BF80B500AF094B0A4A10
:103B74001A60084B1B684FF002021A72074B084A7E
:103B84001A60084B084A1A60044B1B681B68984764
:103B940080BD00BFD00E0020B00E0020A80E002073
:103BA40060000020CC0E00209000002090B583B06F
:103BB40000AF4FF00003FB8079E18B4B1B889BB275
:103BC400DBB203F00F03DAB2884B1A70874B1B7811
:103BD400002B40F01581864B1B689AB2854B1A80E6
:103BE400844B1B889BB203F030039AB2824B1A8039
:103BF400804B1B889BB203F440539AB27D4B1A80CE
:103C04007B4B1B689BB24BF6BF7403EA040484F439
:103C1400005484F02004764AA1B2784B41EA0303AD
:103C24009BB21360704B1B889BB203F01003002BF4
:103C340042D16F4A6E4B1B689BB2194648F60F730C
:103C440001EA03031360FFF793FE694B1B689BB201
:103C54004BF6BF7403EA0404664B1B889BB203F45F
:103C640080539BB2002B01D084F48054614B1B8899
:103C74009BB203F400539BB2002B01D084F4005494
:103C84005D4B1B889BB203F010039BB2002B01D049
:103C940084F01004584B1B889BB203F020039BB2A2
:103CA400002B01D084F02004514AA1B2534B41EAC5
:103CB40003039BB2136007E14D4B1B689BB2FB806F
:103CC400FB889BB203F40063002B42D0484A484B64
:103CD4001B689BB2194640F68F7301EA0303136015
:103CE400FFF7CEFD424B1B689BB24BF6BF7403EA51
:103CF4000404404B1B889BB203F480539BB2002BFB
:103D040001D084F480543B4B1B889BB203F40053D2
:103D14009BB2002B01D084F40054374B1B889BB218
:103D240003F010039BB2002B01D084F01004324B3B
:103D34001B889BB203F020039BB2002B01D084F0BC
:103D440020042B4AA1B22D4B41EA03039BB213601A
:103D5400BAE0FB889BB29BB21BB2002B80F2A78017
:103D6400234A234B1B689BB2194640F68F7301EA22
:103D740003031360FFF748FE1D4B1B689BB24BF611
:103D8400BF7403EA04041B4B1B889BB203F48053E7
:103D94009BB2002B01D084F48054164B1B889BB239
:103DA40003F400539BB2002B01D084F40054124B53
:103DB4001B889BB203F010039BB2002B01D084F04C
:103DC40010040D4B1B889BB203F020039BB2002B05
:103DD40001D084F02004064AA1B2084B41EA03034F
:103DE4009BB2136070E000BF9C0E0020AC0E00205C
:103DF400005C0040D60E0020D80E00208080FFFF1B
:103E0400334B1B784FEA830303F1804303F5B84334
:103E14001B689BB2FB80FB889BB29BB21BB2002B3E
:103E24001FDA2B4B1B784FEA830303F1804303F51E
:103E3400B843274A12784FEA820202F1804202F51F
:103E4400B842126892B2114640F68F7201EA020239
:103E54001A601F4B1B7803F1FF321E4B53F82230BC
:103E64009847FB889BB203F08003002B1FD0184BAC
:103E74001B784FEA830303F1804303F5B843144AE4
:103E840012784FEA820202F1804202F5B8421268C7
:103E940092B2114648F60F7201EA02021A600C4B04
:103EA4001B7803F1FF320C4B53F8223098470B4B2D
:103EB4001B689AB20A4B1A80094B1B889BB29BB2AF
:103EC4001BB2002BFFF679AE07F10C07BD4690BD7F
:103ED400AC0E0020380000201C000020445C004090
:103EE4009C0E002080B489B000AF786013460A4667
:103EF4007A803B803B8803F101034FEA63037B61D3
:103F04007B8803F1005303F540534FEA4303BB613D
:103F14007B69FB6123E07B681B783B617B6803F171
:103F240001037B607B681B784FEA03231A463B69D5
:103F340042EA0303FB60FB689AB2BB691A80BB695F
:103F440003F10203BB61BB6903F10203BB617B683C
:103F540003F101037B60FB6903F1FF33FB61FB6940
:103F6400002BD8D107F12407BD4680BC704700BFA1
:103F740080B487B000AF786013460A467A803B80ED
:103F84003B8803F101034FEA6303FB607B8803F181
:103F9400005303F540534FEA43033B61FB687B61E5
:103FA40014E07B683A69126892B21A807B6803F164
:103FB40001037B603B6903F104033B617B6803F10C
:103FC40001037B607B6903F1FF337B617B69002B19
:103FD400E7D107F11C07BD4680BC704780B483B0AD
:103FE40000AF0346FB80064AF9884FF6F87301EAEE
:103FF4000303136007F10C07BD4680BC704700BF84
:10400400505C004080B483B000AF02460B46FA71A6
:10401400BB80FB794FEA830303F1804303F5B84384
:10402400FA794FEA820202F1804202F5B84212683C
:1040340092B222F4EC4222F0700291B2BA8841EAC0
:10404400020292B292B21A6007F10C07BD4680BC1C
:10405400704700BF90B482B000AF02460B46FA71BD
:10406400BB80FB794FEA830303F1804303F5B84334
:104074001B689BB223F4E04323F040039CB2BB884B
:1040840003F010039BB2002B02D084F010039CB207
:10409400BB8803F020039BB2002B02D084F02003E2
:1040A4009CB2FB794FEA830303F1804303F5B843E1
:1040B400044A44EA020292B21A6007F10807BD46B4
:1040C40090BC70478080FFFF90B482B000AF02467E
:1040D4000B46FA71BB80FB794FEA830303F18043FB
:1040E40003F5B8431B689BB223F4804323F07003A9
:1040F4009CB2BB8803F480539BB2002B02D084F49F
:1041040080539CB2BB8803F400539BB2002B02D0B3
:1041140084F400539CB2FB794FEA830303F1804398
:1041240003F5B843044A44EA020292B21A6007F162
:104134000807BD4690BC70478080FFFF90B482B0F2
:1041440000AF0346FB71FB794FEA830303F180431D
:1041540003F5B8431B689BB223F4E04323F0400308
:104164009CB284F010039CB284F020039CB2FB79CF
:104174004FEA830303F1804303F5B843044A44EA56
:10418400020292B21A6007F10807BD4690BC70475C
:104194008080FFFF90B482B000AF0346FB71FB79CF
:1041A4004FEA830303F1804303F5B8431B689BB2D2
:1041B40023F4804323F070039CB284F480539CB2B4
:1041C40084F400539CB2FB794FEA830303F18043E8
:1041D40003F5B843044A44EA020292B21A6007F1B2
:1041E4000807BD4690BC70478080FFFF80B483B051
:1041F40000AF0346FB71FB794FEA830303F180426E
:1042040002F5B842FB794FEA830303F1804303F5D7
:10421400B8431B689BB223F4F8734FEA03534FEA85
:1042240013539BB243F07F4343F47F0343F40043AF
:1042340043F080039BB29BB2136007F10C07BD46A9
:1042440080BC704780B483B000AF0346FB71FB7938
:104254004FEA830303F1804303F5B8431B689BB221
:1042640003F48043002B19D0FB794FEA830303F155
:10427400804303F5B843FA794FEA820202F180429F
:1042840002F5B842126892B2114640F60F7201EA82
:10429400020242F4404242F080021A6007F10C0725
:1042A400BD4680BC704700BF80B483B000AF0346F6
:1042B400FB71FB794FEA830303F1804303F5B843B1
:1042C4001B689BB203F04003002B19D0FB794FEA23
:1042D400830303F1804303F5B843FA794FEA82027A
:1042E40002F1804202F5B842126892B2114640F6D9
:1042F4000F7201EA020242F4004242F0C0021A6064
:1043040007F10C07BD4680BC704700BF80B483B082
:1043140000AF02460B46FA71BB800D4B1B689BB283
:104324001A46FB794FEAC303D31803F1005303F58C
:1043340040534FEA4303BA884FEA520292B24FEA1B
:1043440042021A6007F10C07BD4680BC704700BFEB
:10435400505C004080B483B000AF02460B46FA7153
:10436400BB800C4B1B689BB21A46FB794FEAC30314
:10437400D218094BD3184FEA4303BA884FEA5202C2
:1043840092B24FEA42021A6007F10C07BD4680BCA4
:10439400704700BF505C00400430002080B483B0FC
:1043A40000AF0346FB710B4B1B689BB21A46FB79AB
:1043B4004FEAC303D31803F1005303F540534FEA04
:1043C40043031B689BB2184607F10C07BD4680BC2B
:1043D400704700BF505C004080B483B000AF034618
:1043E400FB710A4B1B689BB21A46FB794FEAC30365
:1043F400D218074BD3184FEA43031B689BB21846E5
:1044040007F10C07BD4680BC704700BF505C0040FC
:104414000430002080B483B000AF02460B46FA712A
:10442400BB80094B1B689BB21A46FB794FEAC30356
:10443400D218064BD3184FEA4303BA881A6007F11F
:104444000C07BD4680BC7047505C00400230002021
:1044540080B485B000AF02460B46FA71BB801F4B97
:104464001B689BB21A46FB794FEAC303D2181C4B54
:10447400D3184FEA4303BB60BB883E2B15D9BB88D6
:104484004FEA5313FB81BB8803F01F03002B03D1B6
:10449400FB8903F1FF33FB81FB894FEA832343F458
:1044A40000431A46BB681A6013E0BB884FEA530303
:1044B400FB81BB8803F00103DBB2002B03D0FB8933
:1044C40003F10103FB81FB894FEA83231A46BB688E
:1044D4001A6007F11407BD4680BC7047505C004069
:1044E4000630002080B483B000AF0346FB710C4B50
:1044F4001B689BB21A46FB794FEAC303D218094BD7
:10450400D3184FEA43031B689BB24FEA83534FEA25
:1045140093539BB2184607F10C07BD4680BC704705
:10452400505C00400630002080B485B000AF0346E4
:10453400FB80FB88FB73FB884FEA13239BB29AB280
:10454400FB7B4FEA03239BB242EA03039BB2BB818A
:10455400BB89184607F11407BD4680BC704700BFED
:1045640080B400AF084B4FF000021A60074B4FF4C1
:1045740006421A80064B054A12881A604FF000035F
:104584001846BD4680BC7047445C0040D40E0020F1
:10459400405C004080B584B000AF03463960FB71D5
:1045A4004FF00003FB60FB7903F07F03DBB2184696
:1045B400FFF798FF0346FB60FB7903F07F03DBB250
:1045C4001846FFF709FF03461A46FB689BB2386892
:1045D40011461A46FFF7CCFCFB68184607F1100792
:1045E400BD4680BD80B483B000AF7860054A7B6867
:1045F40043F0BE6343F42023D36007F10C07BD46A8
:1046040080BC704700ED00E080B487B000AF7860F4
:104614004FF000037B614FF000033B614FF00F0349
:10462400FB607B68DB78002B3FD02B4BDB686FEAA9
:10463400030303F4E0634FEA13237B617B69C3F153
:1046440004033B617B69FA6822FA03F3FB607B682D
:104654005B781A463B6902FA03F37B617B689B78BB
:104664001A46FB6802EA03037A6942EA03037B61A0
:104674007B694FEA03137B6118497B681B787A696D
:10468400D2B2CB1883F80023144B7A6812784FEA1D
:104694005212D2B27968097801F01F014FF001007B
:1046A40000FA01F143F8221011E00C4B7A681278F9
:1046B4004FEA5212D2B27968097801F01F014FF023
:1046C400010000FA01F102F1200243F8221007F17F
:1046D4001C07BD4680BC704700ED00E000E100E02F
:1046E40080B489B000AF786039604FF00003FB619B
:1046F4004FF000033B614FF00003BB614FF0000338
:10470400FB604FF000037B614FF00003BB603B682C
:10471400DB7803F00F03FB613B68DB7803F01003E5
:10472400002B05D03B689B78FA6942EA0303FB61DE
:104734003B681B8803F0FF03002B51D07B681B6888
:104744007B614FF00003BB6144E0BB694FF00102A1
:1047540002FA03F3FB603B681B881A46FB6802EA13
:1047640003033B613A69FB689A422FD1BB694FEA64
:104774008303FB60FB684FF00F0202FA03F3BB6094
:10478400BB686FEA03037A6902EA03037B61FB688F
:10479400FA6902FA03F37A6942EA03037B613B682C
:1047A400DB78282B07D1BB694FF0010202FA03F230
:1047B4007B685A610AE03B68DB78482B06D1BB6909
:1047C4004FF0010202FA03F27B681A61BB6903F13C
:1047D4000103BB61BB69072BB7D97B687A691A608F
:1047E4003B681B88FF2B56D97B685B687B614FF065
:1047F4000003BB6149E0BB6903F108034FF0010208
:1048040002FA03F3FB603B681B881A46FB6802EA62
:1048140003033B613A69FB689A4232D1BB694FEAB0
:104824008303FB60FB684FF00F0202FA03F3BB60E3
:10483400BB686FEA03037A6902EA03037B61FB68DE
:10484400FA6902FA03F37A6942EA03037B613B687B
:10485400DB78282B08D1BB6903F108034FF0010270
:1048640002FA03F27B685A613B68DB78482B08D173
:10487400BB6903F108034FF0010202FA03F27B68FB
:104884001A61BB6903F10103BB61BB69072BB2D990
:104894007B687A695A6007F12407BD4680BC70477B
:1048A40080B483B000AF78600B467B807A887B68E5
:1048B4001A6107F10C07BD4680BC704780B483B011
:1048C40000AF78600B467B807A887B685A6107F179
:1048D4000C07BD4680BC704780B483B000AF7860DD
:1048E400034B7A681A6007F10C07BD4680BC704719
:1048F400D800424280B483B000AF78600B46FB70AE
:10490400FB78002B07D00B4B0A4A91697A6841EA7D
:1049140002029A6108E0074B064A91697A686FEAD5
:10492400020201EA02029A6107F10C07BD4680BC4B
:10493400704700BF0010024080B483B000AF7860BD
:104944000B46FB70FB78002B07D00B4B0A4AD1694E
:104954007A6841EA0202DA6108E0074B064AD16943
:104964007A686FEA020201EA0202DA6107F10C07CF
:10497400BD4680BC704700BF0010024080B483B0C5
:1049840000AF78607B689B889BB24FEAC3534FEAC1
:10499400D3539BB2184607F10C07BD4680BC704741
:1049A40080B485B000AF78600B467B804FF0000385
:1049B400FB737B681B889AB27B8802EA03039BB271
:1049C400002B03D04FF00103FB7302E04FF0000310
:1049D400FB73FB7B184607F11407BD4680BC704788
:1049E4004FF00004EFF3088420467047234618462E
:1049F40080B500AF154B154A126842F001021A60E7
:104A0400124A124B5968124B01EA030353600F4ACE
:104A14000E4B1B6823F0847323F4803313600B4B19
:104A24000A4A126822F480221A60084B074A526824
:104A340022F4FE025A60054B4FF41F029A6000F004
:104A44000BF8044B4FF000629A6080BD00100240E6
:104A54000000FFF800ED00E080B500AF00F002F8C0
:104A640080BD00BF80B483B000AF4FF000037B6013
:104A74004FF000033B603B4B3A4A126842F48032E9
:104A84001A60384B1B6803F400333B607B6803F106
:104A940001037B603B68002B03D17B68B3F5A06FF7
:104AA400EFD1304B1B6803F40033002B03D04FF0DD
:104AB40001033B6002E04FF000033B603B68012BC5
:104AC4004BD1294B284A126842F010021A60264B37
:104AD400254A126822F003021A60234B224A126804
:104AE40042F002021A601F4B1E4A52685A601D4B64
:104AF4001C4A52685A601B4B1A4A526842F480623C
:104B04005A60184B174A526822F47C125A60154BAB
:104B1400144A526842F4E8125A60124B114A12685D
:104B240042F080721A6000BF0E4B1B6803F00073E2
:104B3400002BF9D00B4B0B4A526822F003025A6047
:104B4400084B084A526842F002025A6000BF054B03
:104B54005B6803F00C03082BF9D107F10C07BD4681
:104B640080BC70470010024000200240002103E096
:104B74000A4B5B584350043109480A4B42189A4285
:104B8400F6D3094A02E0002342F8043B074B9A4259
:104B9400F9D3FFF72DFFFDF7BFFB70475C5A000800
:104BA40000000020E8050020E8050020E00E0020B9
:104BB400FEE7000048656C6C6F20776F726C6421AF
:104BC4000D0000004865617020616E64207374619B
:104BD400636B20636F6C6C6973696F6E0A0000000D
:104BE4001201000202000040830440570002010247
:104BF4000301000009024300020100C0320904005D
:104C04000001020201000524001001052401000135
:104C1400042402020524060001070582030800FF9C
:104C240009040100020A0000000705030240000015
:104C34000705810240000000040309042603530011
:104C440054004D006900630072006F0065006C0041
:104C540065006300740072006F006E0069006300F9
:104C6400730000003203530054004D00330032003F
:104C740020005600690072007400750061006C0029
:104C8400200043004F004D00200050006F007200D0
:104C9400740020002000000000000000000000005C
:104CA4000000000000000000000000000000000000
:104CB40000000000000000000000000000000000F0
:104CC40000000000000000000000000000000000E0
:104CD40000000000000000000000000000000000D0
:104CE40000000000000000000000000000000000C0
:104CF4000000000000000000E80000200A0000009E
:104D040043000000F8B500BFF8BC08BC9E467047DD
:0C4D1400F8B500BFF8BC08BC9E46704714
:045A5400F90100084C
:045A5800E50100085C
:105A5C001A03530054004D00330032003100300063
:105A6C000000000000000000000000007525000888
:105A7C00613B0008613B0008613B0008613B00088A
:105A8C00613B0008613B0008613B0008613B00087A
:105A9C0081250008613B0008613B0008613B000860
:105AAC00613B000800C20100000008000401000076
:105ABC009D260008C926000845280008652800080E
:105ACC007128000801290008D5290008452900087B
:105ADC00692900088D290008000000004000000022
:105AEC00613B000801280008613B0008613B00088D
:105AFC00613B0008613B0008613B0008613B00080A
:105B0C002D280008E44B000812000000F84B000898
:105B1C00430000003C4C000804000000404C00080E
:105B2C0026000000684C0008320000000000002035
:105B3C001A000000E8000020000000009C4C000847
:105B4C00BC4C0008DC4C0008000000000000000009
:105B5C000000000000000000044D000800000000E0
:105B6C000000000000000000000000000000000029
:105B7C000000000000000000000000000000000019
:105B8C000000000000000000000000000000000009
:105B9C0000000000000000000000000000000000F9
:105BAC0000000000000000000000000000000000E9
:105BBC0000000000000000000000000000000000D9
:105BCC0000000000000000000000000000000000C9
:105BDC0000000000000000000000000000000000B9
:105BEC0000000000000000000000000000000000A9
:105BFC000000000000000000000000000000000099
:105C0C000000000000000000000000000000000088
:105C1C000000000000000000000000000000000078
:105C2C000000000000000000000000000000000068
:105C3C00D8010020D8010020E0010020E001002064
:105C4C00E8010020E8010020F0010020F001002014
:105C5C00F8010020F80100200002002000020020C2
:105C6C000802002008020020100200201002002070
:105C7C001802002018020020200200202002002020
:105C8C0028020020280200203002002030020020D0
:105C9C003802002038020020400200204002002080
:105CAC004802002048020020500200205002002030
:105CBC0058020020580200206002002060020020E0
:105CCC006802002068020020700200207002002090
:105CDC007802002078020020800200208002002040
:105CEC0088020020880200209002002090020020F0
:105CFC009802002098020020A0020020A0020020A0
:105D0C00A8020020A8020020B0020020B00200204F
:105D1C00B8020020B8020020C0020020C0020020FF
:105D2C00C8020020C8020020D0020020D0020020AF
:105D3C00D8020020D8020020E0020020E00200205F
:105D4C00E8020020E8020020F0020020F00200200F
:105D5C00F8020020F80200200003002000030020BD
:105D6C00080300200803002010030020100300206B
:105D7C00180300201803002020030020200300201B
:105D8C0028030020280300203003002030030020CB
:105D9C00380300203803002040030020400300207B
:105DAC00480300204803002050030020500300202B
:105DBC0058030020580300206003002060030020DB
:105DCC00680300206803002070030020700300208B
:105DDC00780300207803002080030020800300203B
:105DEC0088030020880300209003002090030020EB
:105DFC009803002098030020A0030020A00300209B
:105E0C00A8030020A8030020B0030020B00300204A
:105E1C00B8030020B8030020C0030020C0030020FA
:105E2C00C8030020C8030020D0030020D0030020AA
:105E3C00D8030020D8030020E0030020E00300205A
:105E4C00E8030020E8030020F0030020F00300200A
:105E5C00F8030020F80300200004002000040020B8
:105E6C000804002008040020100400201004002066
:105E7C001804002018040020200400202004002016
:105E8C0028040020280400203004002030040020C6
:105E9C003804002038040020400400204004002076
:105EAC004804002048040020500400205004002026
:105EBC0058040020580400206004002060040020D6
:105ECC006804002068040020700400207004002086
:105EDC007804002078040020800400208004002036
:105EEC0088040020880400209004002090040020E6
:105EFC009804002098040020A0040020A004002096
:105F0C00A8040020A8040020B0040020B004002045
:105F1C00B8040020B8040020C0040020C0040020F5
:105F2C00C8040020C8040020D0040020D0040020A5
:105F3C00D8040020D8040020E0040020E004002055
:105F4C00E8040020E8040020F0040020F004002005
:105F5C00F8040020F80400200005002000050020B3
:105F6C000805002008050020100500201005002061
:105F7C001805002018050020200500202005002011
:105F8C0028050020280500203005002030050020C1
:105F9C003805002038050020400500204005002071
:105FAC004805002048050020500500205005002021
:105FBC0058050020580500206005002060050020D1
:105FCC006805002068050020700500207005002081
:105FDC007805002078050020800500208005002031
:105FEC0088050020880500209005002090050020E1
:105FFC009805002098050020A0050020A005002091
:10600C00A8050020A8050020B0050020B005002040
:10601C00B8050020B8050020C0050020C0050020F0
:10602C00C8050020C8050020D0050020D0050020A0
:08603C00FFFFFFFF000002005E
:0400000508004B7133
:00000001FF
